:020000040800F2
:100000003864002061020008D54C000871450008E2
:10001000D14C0008151A0008456E000800000000C9
:10002000000000000000000000000000A101000826
:10003000CB1C000800000000FD0100080D5C00085A
:100040007B0200087B0200087B0200087B0200089C
:100050007B0200087B020008CD1C0008031D00087D
:100060007B0200080D1D0008171D00087B02000818
:10007000A11B00087B0200087B0200087B0200082D
:10008000B11B00087B0200087B0200087B0200080D
:10009000791A00087B0200087B020008211D000875
:1000A0007B0200087B0200087B0200087B0200083C
:1000B0007B0200087B0200087B0200087B0200082C
:1000C0007B0200087B0200087B0200087B0200081C
:1000D0007B0200087B020008256E0008356E0008D0
:1000E000D71C00087B0200087B0200087B02000886
:1000F0007B0200087B0200087B0200087B020008EC
:100100007B0200087B0200083D6600087B020008B5
:100110007B0200087B0200084D6600085D6600084F
:100120007B0200087B0200087B0200087B020008BB
:100130007B0200087B0200087B0200087B020008AB
:100140007B020008551B00087B0200087B020008A8
:100150007B0200087B0200087B0200087B0200088B
:100160007B0200087B0200087B0200087B0200087B
:100170007B0200087B0200087B02000800000000F0
:100180007B0200087B020008DFF810D000F0E4FAE0
:1001900000480047718E0008AFF3008038640020EB
:1001A0002C4B19680868B0E8F04F80F30988BFF35A
:1001B0006F8F4FF0000080F311887047000000003F
:1001C00008480068006880F308884FF0000080F35A
:1001D000148862B661B6BFF34F8FBFF36F8F00DF35
:1001E00000BF00BF08ED00E0DFF80C00016841F43B
:1001F00070010160704700BF88ED00E0EFF30980F7
:10020000BFF36F8F134B1A681EF0100F08BF20ED5D
:10021000108A20E9F04F106009B44FF0500080F3CD
:100220001188BFF34F8FBFF36F8F0AF09FF84FF025
:10023000000080F3118809BC19680868B0E8F04F25
:100240001EF0100F08BFB0EC108A80F30988BFF3CE
:100250006F8F7047D8020020EFF3058070470000D1
:100260000648804706480047FEE7FEE7FEE7FEE750
:10027000FEE7FEE7FEE7FEE7FEE7FEE7D95C0008E3
:10028000890100082DE9F05F0546002092469B4653
:1002900088460646814640241BE02846414647469C
:1002A000224600F091F853465A46C01A914110D3A5
:1002B00011461846224600F078F82D1A67EB01081F
:1002C0004F4622460120002100F06FF817EB00098D
:1002D0004E41201EA4F10104DFDC484631462A4687
:1002E0004346BDE8F09F40EA01039B0703D009E0C5
:1002F00008C9121F08C0042AFAD203E011F8013B12
:1003000000F8013B521EF9D27047D2B201E000F86A
:10031000012B491EFBD270470022F6E710B51346A9
:100320000A4604461946FFF7F0FF204610BD30B5D7
:1003300005462A460B4612F8010B13F8014B08B18B
:10034000A042F8D01CB1002802D06D1CF1E728466D
:1003500030BD421C10F8011B0029FBD1801A7047E8
:1003600030B505460020034600E05B1C934205D2F1
:10037000EC5CC85C201A01D1002CF6D130BD30B540
:100380000B46014600202022012409E021FA02F553
:100390009D4205D303FA02F5491B04FA02F52844ED
:1003A000151EA2F10102F1DC30BD202A04DB203A47
:1003B00000FA02F1002070479140C2F1200320FAB8
:1003C00003F3194390407047202A04DB203A21FAB6
:1003D00002F00021704721FA02F3D040C2F120025E
:1003E00091400843194670472DE9FE4F804681EA47
:1003F0000300C00F0C46009021F0004123F000459F
:10040000B8EB0200A94105D24046214690461C4661
:100410000B46024623F00040104347D0270DC7F398
:100420000A00C3F30A510290401A019040286BDA87
:10043000C3F3130040F4801B0098924620B10023C0
:10044000D2EB030A63EB0B0B01985946C0F1400253
:100450005046FFF7AAFF06460D4650465946019AF8
:1004600000F08CF910EB08006141002487EA11527A
:1004700084EAE7731A4340D0009A62B3019A012AD2
:100480004FEA075215DC001B61EB02014FF00042FE
:1004900002EA0752CDE90042001C41F580113246C4
:1004A0002B4600F08CF903B0BDE8F08F40462146A2
:1004B000F9E7001B61EB0201001C41F580130018F5
:1004C0005B412018A2F5001747EB030140EAD57005
:1004D000B6196D4111E06D084FEA360645EAC07560
:1004E0004FEA0752001B61EB0201001C41F580112D
:1004F00049084FEA30000019514132462B4603B0FB
:10050000BDE8F04F00F04CB90098012240000023F4
:10051000D0EB020263EBE073009821464FEAE074EF
:10052000B8EB000061EB0401E9E783F000435BE70F
:1005300081F0004158E72DE9FE4F81EA030404F001
:10054000004421F0004100944FF0000B23F00043E1
:1005500050EA01045ED052EA03045BD0C3F30A54AC
:10056000C1F30A552C44A4F2F3340194A0FB0254C5
:10057000C1F3130141F48011C3F3130343F4801357
:1005800001FB024400FB034E840A970A44EA8154AB
:1005900047EA8357A4FB076802958D0A05FB078588
:1005A0004FEA932C04FB0C542705029D4FEA065892
:1005B00047EA1637B5EB08056EEB070C870E920E6F
:1005C00047EA811742EA8312A7FB0201B6EB0B014F
:1005D00064EB00042B0D43EA0C335E1844EB1C5013
:1005E000DA465146E7FB0201C5F313044FEA0B3329
:1005F00043EA14534FEA0432019C43EA0603A4F190
:100600000C040294009CCDE900B400F0D8F803B0CB
:10061000BDE8F08F00200146F9E72DE9F04D81EAB1
:10062000030404F0004B21F0004514464FF0000A8B
:1006300023F0004150EA050220D054EA01021DD007
:10064000C5F30A570246C5F31303C1F31300C1F300
:100650000A5640F4801543F48013A7EB0608101BDC
:10066000D64608F2FD3873EB050002D308F1010805
:1006700001E092185B41B8F1000F03DA0020014657
:10068000BDE8F08D00204FF48011064684460EE050
:10069000171B73EB050705D3121B63EB050306431A
:1006A0004CEA010C49084FEA300092185B4150EACD
:1006B0000107EDD152EA030012D082EA040083EA76
:1006C0000501084305D0101BAB4106D201220023CF
:1006D00006E000224FF0004302E06FF001025310E9
:1006E0001AEB06004CEB085110EB0A0041EB0B0132
:1006F000BDE8F04D00F054B8C1F30A52C1F3130144
:1007000040F2FF3341F480119A4202DA00200146A0
:10071000704740F233439A42A2F2334202DC524223
:10072000FFF752BEFFF741BE30B5041E71F1000461
:1007300004DB4FF00044404264EB0101141E73F1EE
:10074000000405DB1C464FF00043524263EB0403F8
:10075000994208BF904230BD064C074D06E0E06864
:1007600040F0010394E8070098471034AC42F6D3F8
:10077000FFF70EFD64BE000884BE0008202A06DBD9
:10078000CB17203A41FA02F043EAE07306E041FA5F
:1007900002F3D040C2F1200291400843194670474D
:1007A00010B5141E73F1000408DA401C41F1000179
:1007B00092185B411A4301D120F0010010BD2DE9D0
:1007C000F04D92469B4611B1B1FA81F202E0B0FAC7
:1007D00080F220329046FFF7E8FD04460F4640EADB
:1007E0000A0041EA0B0153465A46084313D011460A
:1007F00053EA010019D0C8F140025046FFF7E4FD6A
:1008000005460E46504659464246FFF7CEFD084380
:1008100005D0012004E020463946BDE8F08D0020D7
:10082000054346EAE0762C4337430A986305E40A19
:10083000A0EB08000022FD0A44EA47540A3002D522
:1008400000200146E9E7010510196941DDE9084585
:1008500000196941BDE8F04DA2E770B58C1810F899
:10086000015B15F0070301D110F8013B2A1106D1F5
:1008700010F8012B03E010F8016B01F8016B5B1E0F
:10088000F9D12B0705D40023521E0DD401F8013BEA
:10089000FAE710F8013BCB1A921C03E013F8015B56
:1008A00001F8015B521EF9D5A142D8D3002070BDDA
:1008B0001FB500240E4A00210E4808F0C1FB0E4966
:1008C00008600846006880B901242D200BA110A201
:1008D000CDE90002174B09A2CDE9021016A10120B3
:1008E00007F0CAFB204604B010BD2046FBE700001D
:1008F00050B5000851130008400100202E2E5C4125
:1009000050505C6170705F696E69742E6300000006
:100910004661696C656420746F20637265617465FB
:10092000207461736B2061742025732061742564C9
:100930000D0A0000FBB500084E4F5F544147000010
:10094000F0B585B007463E4600246D480078002883
:100950005FD100BF26E0411C00EBC00202EB001299
:10096000684B03F82210002100EBC00202EB0012DA
:1009700003EB820282F82810634901EBC001496849
:1009800000EBC00202EB001203EB8202D1635E496E
:1009900051F8301000EBC00202EB001203EB8202B0
:1009A0009163401C0A28D6DB584804F0C3FC044677
:1009B0006CB1A12056A15CA2CDE90002634B54A208
:1009C000CDE9021062A1012007F056FB7EE0002570
:1009D0001AE005EBC50000EB05104A4A02EB800166
:1009E0004A4804F063FE04466CB1A92048A15AA20B
:1009F000CDE90310554B8DE8250045A254A10120F7
:100A000007F03AFB62E06D1C0A2DE2DB01203C4955
:100A100008705A4800683D49C1F8AC005848006861
:100A2000C1F8B0005749394804F0C6FE044674B115
:100A3000B72037A154A2CDE90002444B34A2CDE93E
:100A4000021043A1012007F017FB05B0F0BDB078FC
:100A500056A1DE223D4BCDE9002102902CA23CA103
:100A6000012007F009FB4FF47A7008F093FA5A4816
:100A700031680160716841605849304609F00AF9EF
:100A8000044684B1E82022A155A2CDE900022F4BF3
:100A90001FA2CDE902102EA1012007F0EDFA042CCF
:100AA00000D109E012E04D480068574908604B4901
:100AB000554806F0FBFA00BF30480168534800680B
:100AC00001F059F9002009F03BFB00BF4249122018
:100AD00001F00CF848B14EA0FC211C4B0CA2CDE952
:100AE00000101BA1042007F0C7FA244801684748FA
:100AF000006801F040F9002009F022FB00BFA4E7E4
:100B00007C010020C8070020B8B7000810070020AB
:100B10002E2E5C4150505C6170705F73795F6D6F19
:100B2000746F722E6300000052656769737465729A
:100B30005F496E6974204661696C65642061742048
:100B40002573206C696E65202564000008B80008D4
:100B50004E4F5F5441470000526567697374657278
:100B6000204661696C6564205B25645D20617420AA
:100B70002573206C696E65202564000088010020C3
:100B8000440100203002002068616E646C65725F71
:100B9000696E7374204661696C65642061742025F8
:100BA00073206C696E652025640000005356303454
:100BB0004D5F6368616E67655F6368616E6E656CEB
:100BC000207375636365737366756C206174205B55
:100BD00025645D20000000007D010020D00600207B
:100BE00073795F616E616C797A655F6461746120AD
:100BF0004661696C6564206174202573206C696EA0
:100C000065202564000000007801002070010020AC
:100C100043414E31205472616E73696D6974206670
:100C200061696C65640D0A002DE9FF478146D9F8BA
:100C3000004009F104060025B078717840EA0127E8
:100C4000062F6FD1B079717940EA012ACAEB0A10F8
:100C50004FEA00188BE02069012102692046904785
:100C60000546002D13D040F2A310B5A1BAA2CDE9DC
:100C70000002C14BB2A2CDE90210C0A1012007F0D1
:100C8000FBF98620BF4948700220887042E1142099
:100C900008F080F941F27070804500DD00E04046C8
:100CA00081B2206942682046904705469DB140F2D6
:100CB000BB10A3A1A8A2CDE90002AF4BA0A2CDE931
:100CC0000210AEA1012007F0D7F98620AD49487087
:100CD000022088701EE142F6E06008F05BF92069AE
:100CE000022102692046904705469DB140F2C71097
:100CF00093A199A2CDE900029F4B91A2CDE90210E8
:100D00009EA1012007F0B8F986209E494870022074
:100D10008870FFE0142008F03DF941F270708045C2
:100D200001DD01E028E0404681B22069826820466A
:100D3000904705469DB14FF4EF7081A186A2CDE9A1
:100D400000028D4B7EA2CDE902108CA1012007F09C
:100D500093F986208B49487002208870DAE041F2CE
:100D6000707008F017F9A8F58058A8F5EE68B8F18A
:100D7000000F3FF770AFCCE0052F7BD1B0797179D0
:100D800040EA012A2069022102692046904705466F
:100D90009DB140F2F1106AA16FA2CDE90002764B3D
:100DA00067A2CDE9021075A1012007F065F9862040
:100DB0007449487002208870ACE0142008F0EAF80A
:100DC000206941F2707142682046904705469DB106
:100DD00040F206205AA160A2CDE90002664B58A25B
:100DE000CDE9021065A1012007F046F9862065498A
:100DF0004870022088708DE042F6E06008F0CAF882
:100E00002069012102692046904705469DB140F2C4
:100E100013204BA150A2CDE90002574B48A2CDE9C7
:100E2000021056A1012007F027F986205549487085
:100E3000022088706EE0142008F0ACF8206941F2BE
:100E400070718268204690470546A5B140F22B207C
:100E50003BA141A2CDE90002474B39A2CDE90210E6
:100E600046A1012007F008F9862046494870022073
:100E700088704FE004E041F2707008F08BF848E0B1
:100E8000012F15D12069C168204688470546002DED
:100E90003FD04FF40E702AA12FA2CDE90002364BAD
:100EA00027A2CDE9021035A1012007F0E5F830E0D6
:100EB000022F2ED120690121026920469047054664
:100EC0009DB140F242201EA123A2CDE900022A4B8F
:100ED0001BA2CDE9021029A1012007F0CDF8862040
:100EE000284948700220887014E020690168204673
:100EF000884705466DB140F2562011A116A2CDE9F2
:100F000000021D4B0EA2CDE902101CA1012007F02A
:100F1000B3F800BF1B49122000F0E8FD50B11AA041
:100F200040F25E21144B06A2CDE9001013A104206B
:100F300007F0A2F80020606309F002F9BDE8FF871E
:100F40002E2E5C4150505C6170705F73795F6D6FE5
:100F5000746F722E63000000617370697261746552
:100F6000204661696C6564206174202573206C697A
:100F70006E6520256400000019B800084E4F5F54CC
:100F8000414700007D01002043414E3120547261F1
:100F90006E73696D6974206661696C65640D0A0021
:100FA00070B588B004460D46002007900A26182127
:100FB00001A8FFF7B1F911200190002003900490DF
:100FC000059507E00D4801F055F900B106E06420F1
:100FD00007F0E0FF301EA6F10106F3D100BF0EB905
:100FE00008B070BD08F026FF07AB224601A90348F0
:100FF00000F016FF08F048FF00BFF1E7940300205F
:101000002DE9FF478046D8F8004008F10409002682
:101010000025AA46012709E007F10E01C8B200F039
:10102000EBFC012801D0FDB202E07F1C042FF3DBB2
:1010300000BF002D44D100212046226E9047064675
:1010400006B118E14FF47A7007F0A4FF00212046A2
:10105000626E9047064606B10DE199F8015055B908
:1010600088A0CD218C4B8DA2CDE9001090A101204C
:1010700007F002F8FFE000212046E26D90470646A7
:1010800006B1F8E04FF0000A4FF47A7007F082FFE3
:10109000012D01D188A000E089A08BA1D9227E4B2F
:1010A000CDE9002102907DA281A1012006F0E4FF9C
:1010B00000212046626E90470646002E70D0DAE08E
:1010C00099F8010020B1012843D0022840D1B2E0B4
:1010D000012D0ED14FF47A7007F05CFF7FA0F7214D
:1010E0006D4B6EA2CDE9001071A1012006F0C4FF86
:1010F0002EE000212046226E9047064606B1BAE057
:101100004FF47A7007F046FF40F2031063A17CA20F
:10111000CDE90002604B61A2CDE9021064A101207B
:1011200006F0AAFF00212046626E9047064606B1EF
:10113000A1E04FF47A7007F02DFF68A040F219117A
:10114000554B56A2CDE9001059A1012006F094FF9D
:101150008FE0012D31D100212046E26D90470646F7
:1011600006B188E04FF47A7007F014FF4FF49470E2
:101170004AA163A2CDE90002474B48A2CDE9021083
:101180004BA1012006F078FF00212046626E9047B7
:10119000064606B16FE04FF47A7007F0FBFE00E000
:1011A00068E061A04FF49F713B4B3CA2CDE9001079
:1011B0003FA1012006F060FF3CE0022D0FD14FF46B
:1011C0007A7007F0E7FE58A040F24511324B33A287
:1011D000CDE9001036A1012006F04EFF4BE0032DB3
:1011E00028D100212046226E90474FF47A7007F0F4
:1011F000D1FE4FF4A77029A141A2CDE90002264BF0
:1012000026A2CDE902102AA1012006F035FF002117
:101210002046626E90474FF47A7007F0BBFE42A002
:101220004FF4B0711C4B1DA2CDE9001020A101208C
:1012300006F022FF00BF012D01D0022D19D100219F
:101240002046E26D90474FF47A7007F0A3FE40F21B
:10125000691012A12AA2CDE900020F4B0FA2CDE91D
:10126000021013A1012006F007FF00212046626E44
:10127000904700BF00BF0020606308F061FFBDE839
:10128000FF8700005443534D2020696E2074686529
:10129000206C6566740D0A00E5B500082E2E5C41D1
:1012A00050505C6170705F7463736D2E630000005A
:1012B0004E4F5F54414700006D6964646C650000E7
:1012C00072696768740000005443534D2020696EB2
:1012D000207468652025730D0A0000005443534DA7
:1012E0005F447269766572312072656365697665FF
:1012F000206C65667420706F736974696F6E00008E
:1013000070665F5443534D5F4241434B57415244D3
:101310002078206C656674206174202573206C69C8
:101320006E652025640000005443534D5F4472698C
:10133000766572312072656365697665204D494432
:10134000444C4520706F736974696F6E0000000033
:1013500088B000240020069007908C488C490860D3
:1013600000220821052009F017F98A49086008467B
:10137000006858B988A05A218D4B8EA2CDE9001083
:1013800093A1042006F078FE00BFFEE703F0E2FC24
:10139000914908600420914B914A924900908E48EF
:1013A000006800F000FD58B98FA06821804B81A231
:1013B000CDE9001086A1042006F05EFE00BFFEE726
:1013C0000220904B904A914900908348006800F0B9
:1013D000EAFC58B98EA07621754B76A2CDE90010B3
:1013E0007BA1042006F048FE00BFFEE70520914BDC
:1013F000914A924900907848006800F0D4FC58B9AE
:101400008FA084216A4B6BA2CDE9001070A104204B
:1014100006F032FE00BFFEE70320934B934A944947
:1014200000906D48006800F0BEFC58B991A0922170
:101430005F4B60A2CDE9001065A1042006F01CFE00
:1014400000BFFEE700BF00BF00BF4FF0FF3206A99C
:101450005048006809F0DCFA0546012D7ED14C4861
:1014600004A9026806A890479DF8180005287CD2B8
:10147000DFE800F0031A3148600006AA012156484F
:10148000006800F056FC04466CB1DE2049A182A23F
:10149000CDE90002464B47A2CDE902104CA1042041
:1014A00006F0EAFDCFE76FE006AA02214A4800688D
:1014B00000F03FFC04466CB1EB203EA176A2CDE9E2
:1014C00000023B4B3BA2CDE9021041A1042006F0F3
:1014D000D3FDB8E758E006AA03213F48006800F0B2
:1014E00028FC04466CB1F82032A16BA2CDE90002C1
:1014F0002F4B30A2CDE9021035A1042006F0BCFD2F
:10150000A1E741E006AA04213348006800F011FC7D
:10151000044674B140F2051026A15FA2CDE9000295
:10152000234B24A2CDE9021029A1042006F0A4FD3A
:1015300089E729E006AA05212748006800F0F9FBA1
:1015400004468CB140F213101AA153A2CDE9000257
:10155000174B18A2CDE902101DA101E015E004E02F
:10156000042006F089FD6EE70EE04FF48E7011A1A5
:1015700050A2CDE900020E4B0EA2CDE9021014A13B
:10158000042006F079FD00BF00BF5CE72D9D000838
:101590004C01002044010020E5889BE5BBBAE99896
:1015A0009FE58897E5A4B1E8B4A50D0A0000000006
:1015B00074B500082E2E5C4150505C6170705F74F1
:1015C00061736B5F636F6E74726F6C2E63000000EB
:1015D0004E4F5F54414700007001002088B500085D
:1015E0000D1800087401002063726561742045764F
:1015F000656E74205443534D206661696C65640DBB
:101600000A00000034B80008D11600088C01002040
:101610006372656174204576656E74204150505F39
:10162000646F6F725461736B206661696C65640DE1
:101630000A0000002CB600084109000888010020BB
:101640006372656174204576656E74204150505F09
:1016500053595F4D4F544F525461736B206661690B
:101660006C65640D0A00000078B8000835170008A2
:10167000900100206372656174204576656E742068
:101680004150505F70726F62655461736B20666188
:10169000696C65640D0A00005461736B2053656EBC
:1016A00064206572726F72206174202573206174EA
:1016B000202564005461736B204964204572726F69
:1016C000722061742025732061742025640000005D
:1016D00070B505462C462078012807D0002002E08E
:1016E000FE212154401C0828FADB14E0607810B178
:1016F000012806D102E005F02FFE0AE005F05AFEAF
:1017000007E0002002E0FE212154401C0828FADBFB
:1017100001E000BF00BF054801680548006800F00F
:101720002AFB002008F00CFD70BD00008C01002099
:10173000700100207CB5044625462878022804D094
:10174000002000E028E00828FCDB687810B10128C0
:101750001AD10CE005F05AFE14A041211A4B1BA22D
:10176000CDE900101EA1042006F086FC12E005F071
:101770007DFE1DA04621144B14A2CDE9001018A136
:10178000042006F079FC05E0002000E004E00828D1
:10179000FCDB00BF00BF00BF1A4801681A480068A0
:1017A00000F0E9FA002008F0CBFC7CBD70726F629B
:1017B0006520636C6F73652073756363657373660F
:1017C000756C6C790D0A00009CB800082E2E5C41E7
:1017D00050505C6170705F70726F62652E630000C4
:1017E0004E4F5F544147000070726F6265206F700A
:1017F000656E207375636365737366756C6C790DC4
:101800000A00000090010020700100202DE9FF4136
:101810000646374600244D480078002873D100BFA3
:1018200023E000F1C101C0EB0012494B03EBC202FF
:101830005170484951F83010C0EB001203EBC2025E
:10184000D163444901EBC0014968C0EB001203EBCE
:10185000C2021164C0EB00111A4602EBC101C0EBD9
:10186000001203EBC2029163401C0128D9DB374808
:1018700004F0E0FC04466CB15C2037A13BA2CDE94A
:101880000002444B34A2CDE9021043A1012006F02E
:10189000F3FB50E0002518E0C5EB05102C4A02EBE5
:1018A000C0012A4804F004FE04466CB16A202AA153
:1018B0002EA2CDE90002374B27A2CDE9021036A1B6
:1018C000012006F0D9FB36E06D1C012DE4DB344825
:1018D00000681E49486333480068886332491B48E2
:1018E00004F030FE04466CB17B201BA11FA2CDE9A1
:1018F0000002284B18A2CDE9021027A1012006F012
:10190000BBFB18E0FFE73878032813D139460F48AE
:10191000083005F01DFC044664B189200EA123A205
:10192000CDE900021B4B0CA2CDE902101AA1012047
:1019300006F0A2FB00BF1A4801682648006800F0C4
:101940001AFA002008F0FCFBBDE8FF811806002011
:1019500058060020D0B500082E2E5C4150505C6126
:1019600070705F7463736D2E630000005443534DB9
:101970005F52656769737465725F496E697420466A
:1019800061696C6564206174202573206C696E65E3
:1019900020256400D8B500084E4F5F544147000031
:1019A0007401002044010020D80100205F544353FB
:1019B0004D5F6170705461736B5F43726561742039
:1019C0004552524F52206174202573206C696E6518
:1019D000202564007001002070B504460D46054ABC
:1019E00002EBC4029188034A52F834002A4601F0FF
:1019F00019FB70BD0000002010B50446044A02EB3C
:101A0000C4029188024A52F8340001F0F9FA10BD7C
:101A10008800002000BFFEE770B58AB005460020B0
:101A200001900290009000260021284600F044FB1F
:101A3000C6B2DEB101AB03AA0021284600F050FB7C
:101A400008B10AB070BD00236A4601A908480068C1
:101A500008F060FF0446012C08D1009830B120073F
:101A600004490860BFF34F8FBFF36F8F00BFE8E7F3
:101A70004401002004ED00E010B5024800F015FC20
:101A800010BD000094030020F0B587B005460E4657
:101A9000002006900A2718216846FEF73DFC0095B5
:101AA0000020029003900820049007E00E4800F008
:101AB000E1FB00B106E0642007F06CFA381EA7F1E4
:101AC0000107F3D100BF1FB90124204607B0F0BDC4
:101AD00006AB32466946044800F0A2F910B1012471
:101AE0002046F3E70020F1E794030020F0B587B02B
:101AF00005460E46002006900A2718216846FEF784
:101B00000BFC00950020029003900820049007E051
:101B10000E4800F0AFFB00B106E0642007F03AFA8F
:101B2000381EA7F10107F3D100BF1FB901242046D9
:101B300007B0F0BD06AB32466946044800F070F9C4
:101B400010B101242046F3E70020F1E794030020C0
:101B50007047000010B5024800F0A7FB10BD000060
:101B6000BC03002070B503460C464FF6FF70002101
:101B700012E05D5C684008250AE000F0010626B12D
:101B800040104AF20106704000E040106E1EF5B2AF
:101B9000002DF2D14D1CA9B2A142EADB108070BD2C
:101BA00010B5024800F0DCFE10BD00006405002006
:101BB00010B5024800F0D4FE10BD0000040500205E
:101BC0000146087810381823B0FBF3F20848805C0F
:101BD000C865032A05D908686FF30900001D8865E8
:101BE00003E008686FF309008865886D704700009E
:101BF0000ABA0008014600208A6A8B69CBB932B163
:101C0000012A0DD0022A03D0032A10D10EE000BF12
:101C1000CB6A03F08073B3F1807F00D1012007E02D
:101C2000CB6AB3F1C07F00D1012001E000E000BF2A
:101C300034E08B69B3F5005F1AD132B1012A07D0C5
:101C4000022A03D0032A11D10AE000BF01200EE0CE
:101C5000CB6A03F08073B3F1807F00D1012006E0EE
:101C6000CB6AB3F1C07F00D1012000E000BF15E0D6
:101C700032B1012A05D0022A04D0032A0CD103E094
:101C800000BF00BF012008E0CB6A03F08073B3F10E
:101C9000807F00D1012000E000BF00BF704730B559
:101CA0000468246824F4802405682C600468636058
:101CB0008468402C04D10468A2600468E16003E0F9
:101CC0000468A1600468E26030BD704710B501206F
:101CD00001F08EF810BD10B54FF4806001F088F867
:101CE0004FF4006001F084F84FF4805001F080F868
:101CF0004FF4005001F07CF84FF4804001F078F888
:101D000010BD10B5022001F073F810BD10B5082009
:101D100001F06EF810BD10B5102001F069F810BD8B
:101D200010B54FF4007001F063F810BD72B600BF3B
:101D3000FEE770B504460D46164632462946204653
:101D400002F0CAFF70BD02460B46114602B10BB944
:101D50000020704704E0994201D10020F9E7896929
:101D60000029F8D1114600E0896988690028FBD173
:101D70008B610120EDE710B502460B4611468869DC
:101D800008B9012010BD896909E0486800689842D7
:101D900004D100204C6820600120F3E78969002904
:101DA000F3D10020EEE72DE9F04780460D461646B8
:101DB0001F46DDF820904B463A463146284602F051
:101DC000ADFF044614B90020BDE8F0872146404627
:101DD000FFF7B9FF20B9204606F078FE0020F3E7B0
:101DE0000120F1E711B52DED020B044621466846AE
:101DF00007F02EF81EBD10B5024692F82030012BD8
:101E000001D0022B06D11068406908431468606154
:101E1000002010BD506A40F4802050620120F8E795
:101E2000F0B504460D461E4694F82070206883687D
:101E3000A86800B900E000BF012F01D0022F7DD1BA
:101E400003F0806030B903F0006018B903F08050EF
:101E500000287ED0C3F30161012088403060A8686B
:101E600060B9B5F800C0E86840EA4C5C206800F54D
:101E7000C07000EB0110C0F800C00FE0D5E901C050
:101E800040EACC00D5F80CC040EA0C00D4F800C001
:101E90000CF5C07C0CEB011CCCF80000D5F810C090
:101EA000206800F5C07000EB0110C0F804C0287D68
:101EB00001280ED1206800F5C07000EB01104068C9
:101EC00040F4807C206800F5C07000EB0110C0F881
:101ED00004C0D079000692F806C040EA0C4092F89F
:101EE00005C040EA0C2092F804C040EA0C00D4F887
:101EF00000C00CF5C07C0CEB011CCCF80C00D078B9
:101F0000000692F802C040EA0C4092F801C040EA94
:101F10000C2092F800C040EA0C00D4F800C00CF588
:101F2000C07C0CEB011CCCF80800206800F5C070E8
:101F300000EB0110006840F0010C01E00FE008E048
:101F4000206800F5C07000EB0110C0F800C0002050
:101F5000F0BD606A40F4001060620120F8E7606A3A
:101F600040F4802060620120F2E70000F0B50446F2
:101F70000A4694F82050012D01D0022D7ED142490D
:101F800001F50071086840F001000860086820F45D
:101F90007C5008600868566A40EA06200860107D98
:101FA00000F01F06012000FA06F3C8699843C861D3
:101FB000A1F50071D069C8B9D1F80C029843C1F8F5
:101FC0000C02908880B2968940EA064601F51070AE
:101FD000576940F83760108880B2168940EA064693
:101FE00001F51070576900EBC7004660D069012801
:101FF00019D1D1F80C021843C1F80C02908880B2B4
:10200000168840EA064601F51070576940F83760B7
:10201000908980B2168940EA064601F5107057692A
:1020200000EBC7004660906928B9D1F804029843D4
:10203000C1F8040204E0D1F804021843C1F8040214
:10204000106928B9D1F814029843C1F8140204E0C9
:10205000D1F814021843C1F81402106A012804D1FF
:10206000D1F81C021843C1F81C02D1F8000220F07C
:102070000100C1F800020020F0BDFFE7606A40F4F3
:10208000802060620120F7E70064004010B502463E
:1020900092F82030012B01D0022B06D11068406944
:1020A000884314686061002010BD506A40F48020AD
:1020B00050620120F8E7704710B50246002092F800
:1020C0002030012B01D0022B09D121B91468E4681A
:1020D00004F0030003E01468246904F0030010BD59
:1020E00070B5044694F82050012D01D0022D7DD109
:1020F00051B92068C06800F0030080B9606A40F4FC
:1021000000106062012070BD2068006900F00300CB
:1021100028B9606A40F4001060620120F3E720688B
:1021200000F5D87000EB0110006800F0040090602A
:10213000906840B9206800F5D87000EB0110006885
:10214000400D106007E0206800F5D87000EB01102A
:102150000068C0085060206800F5D87000EB0110DE
:10216000006800F00200D060206800F5D87000EB35
:102170000110406800F00F00082802D30820106109
:1021800008E0206800F5D87000EB0110406800F00E
:102190000F001061206800F5D87000EB0110406856
:1021A00000F47F40000A9061206800F5D87000EBD1
:1021B00001104068000C5061206800F5D87000EBF9
:1021C000011080681870206800F5D87000EB0110CD
:1021D000806800F47F40000A5870206800F5D870CD
:1021E00000EB0110806800F47F0000E03CE0000C90
:1021F0009870206800F5D87000EB01108068000E20
:10220000D870206800F5D87000EB0110C068187114
:10221000206800F5D87000EB0110C06800F47F4022
:10222000000A5871206800F5D87000EB0110C068F2
:1022300000F47F00000C9871206800F5D87000EB66
:102240000110C068000ED87131B92068C06840F034
:1022500020002668F06005E02068006940F020005A
:102260002668306100204EE7606A40F4802060629A
:10227000012048E70146002091F82020012A01D0E2
:10228000022A11D10B689B6803F0806303B1401CE4
:102290000B689B6803F0006303B1401C0B689B68EC
:1022A00003F0805303B1401C70472DE9F05F0446F2
:1022B0000025206846692068D0F804902068876867
:1022C0002068D0F80CA02068D0F810B02068D0F8B2
:1022D000188006F00100002855D007F00100C0B1B9
:1022E00001202168886007F0020018B1204600F044
:1022F000C4FA0EE007F0040010B145F4006508E0F0
:1023000007F0080010B145F4805502E0204600F0C7
:10231000B3FA07F48070C8B14FF480702168886008
:1023200007F4007018B1204600F0A9FA0EE007F497
:10233000806010B145F4005508E007F4006010B16A
:1023400045F4804502E0204600F098FA07F480301A
:10235000C8B14FF480302168886007F4003018B1AC
:10236000204600F08EFA0EE007F4802010B145F40C
:10237000004508E007F4002010B145F4803502E084
:10238000204600F07DFA06F0080038B10AF010008F
:1023900020B145F4007510202168C86006F00400E3
:1023A00040B10AF0080028B108202168C860204622
:1023B00000F00EFA06F0020038B12068C06800F0A4
:1023C000030010B1204600F005FA06F0400038B1D5
:1023D0000BF0100020B145F48065102021680861E1
:1023E00006F0200040B10BF0080028B10820216859
:1023F0000861204600F0FEF906F0100038B12068B0
:10240000006900F0030010B1204600F0F5F906F471
:10241000003040B109F0100028B110202168486058
:10242000204600F0F9F906F4803040B109F00800C8
:1024300028B1082021684860204600F023FA06F4FD
:10244000004088B309F0040078B306F4807020B12E
:1024500008F0010008B145F0010506F4007020B154
:1024600008F0020008B145F0020506F4806020B1D2
:1024700008F0040008B145F0040506F40060A0B1BE
:1024800008F0700088B108F07000402817D006DC12
:1024900010280BD020280CD0302819D10CE050285F
:1024A00010D0602814D110E01DE019E045F00805B7
:1024B0000FE045F010050CE045F0200509E045F07F
:1024C000400506E045F0800503E045F4807500E036
:1024D00000BF00BF2068806920F07000216888611B
:1024E0000420216848602DB1606A2843606220465C
:1024F000FFF7E1FDBDE8F09F70B504460CB901207F
:1025000070BD94F8200010B9204600F0AFF82068A4
:10251000006840F001002168086000F089FD054670
:102520000DE000F085FD401B0A2808D9606A40F4E0
:1025300000306062052084F820000120E0E7206878
:10254000406800F001000028EBD02068006820F00F
:1025500002002168086000F06BFD05460DE000F008
:1025600067FD401B0A2808D9606A40F400306062A9
:10257000052084F820000120C2E72068406800F0B0
:1025800002000028EBD1207E012806D120680068D7
:1025900040F080002168086005E02068006820F0B5
:1025A000800021680860607E012806D120680068EC
:1025B00040F040002168086005E02068006820F0D5
:1025C000400021680860A07E012806D120680068CC
:1025D00040F020002168086005E02068006820F0D5
:1025E000200021680860E07E012806D1206800688C
:1025F00020F010002168086005E02068006840F0C5
:10260000100021680860207F012806D1206800683A
:1026100040F008002168086005E02068006820F0AC
:10262000080021680860607F012806D120680068E2
:1026300040F004002168086005E02068006820F090
:10264000040021680860D4E90201084321690843B5
:10265000616908436168491E08432168C861002018
:102660006062012084F82000002049E710B586B0A0
:102670000446142101A8FDF74FFE4F492068884207
:1026800042D14E480068401C4C490860084600682A
:1026900001280FD100BF002000904948006840F099
:1026A0000070474908600846006800F0007000901C
:1026B00000BF00BF00BF00200090414810380068F4
:1026C00040F001003E49103908600846006800F0FB
:1026D0000100009000BF00BF4FF4C05001900220E5
:1026E000029001200390032004900920059001A985
:1026F000344800F08BFB00220521142000F076FD09
:10270000142000F05FFD54E02F492068884250D12A
:1027100000BF002000902A48006840F080602849EF
:1027200008600846006800F08060009000BF00BFAD
:1027300022480068401C21490860084600680128BA
:102740000FD100BF002000901D48006840F00070CD
:102750001B4908600846006800F00070009000BF48
:1027600000BF00BF0020009015481038006840F0FE
:1027700002001349103908600846006800F00200A2
:10278000009000BF00BF6020019002200290012055
:102790000390032004900920059001A90B4800F044
:1027A00035FB00220521412000F020FD412000F0F2
:1027B00009FD06B010BD0000006400403C0100208F
:1027C000403802400000024000680040000402401F
:1027D0007047000010B504460548A04203D12046CA
:1027E000FFF71AF902E02046FFF7B2F910BD00002A
:1027F000940300207047000010B504460348A0422F
:1028000003D1034803490968884710BDBC03002071
:1028100018060020E0010020704770B5044694F8C7
:102820002000012822D1022084F8200020680068BE
:1028300020F001002168086000F0FAFB05460DE079
:1028400000F0F6FB401B0A2808D9606A40F400300B
:102850006062052084F82000012070BD2068406877
:1028600000F001000028EBD16062F6E7606A40F4F6
:10287000002060620120F0E77047704770477047A2
:1028800070477047704770B50446A56D00F0D0FBE7
:10289000064694F83500022808D08020606500BF05
:1028A000002084F8340000BF012070BD206800685B
:1028B00020F01600216808602068406920F0800040
:1028C00021684861206C08B9A06C28B120680068B4
:1028D00020F00800216808602068006820F00100EE
:1028E0002168086010E000F0A3FB801B05280BD9CD
:1028F00020206065032084F8350000BF002084F8A4
:10290000340000BF0320D0E72068006800F0010019
:102910000028E8D194F85C103F208840A86001208E
:1029200084F8350000BF002084F8340000BF00BFE9
:10293000BBE7014691F83500022803D080204865A6
:1029400001207047052081F835000868006820F0F4
:1029500001000A6810600020F3E70146486D7047E7
:10296000F8B50446002000908C4800684FF41651DA
:10297000B0FBF1F7A56D2E6894F85C100820884034
:10298000304098B12068006800F0040070B1206801
:10299000006820F004002168086094F85C100820AA
:1029A0008840A860606D40F00100606594F85C109C
:1029B00001208840304068B12068406900F0800004
:1029C00040B194F85C1001208840A860606D40F030
:1029D0000200606594F85C1004208840304068B1C3
:1029E0002068006800F0020040B194F85C100420F8
:1029F0008840A860606D40F00400606594F85C1049
:102A000010208840304078B32068006800F008004B
:102A100050B394F85C1010208840A86020680068CB
:102A200000F4802080B12068006800F4002028B9FC
:102A3000206CC8B12046216C884715E0A06C98B185
:102A40002046A16C88470FE02068006800F4807081
:102A500028B92068006820F0080021680860206C10
:102A600010B12046216C884794F85C1020208840E3
:102A70003040002865D02068006800F01000002871
:102A80005FD094F85C1020208840A86094F835004E
:102A9000052828D12068006820F016002168086009
:102AA0002068406920F0800021684861206C08B9E6
:102AB000A06C28B12068006820F008002168086038
:102AC00094F85C103F208840A860012084F835000D
:102AD00000BF002084F8340000BF206D10B12046F4
:102AE000216D8847F8BD2068006800F4802080B11F
:102AF0002068006800F4002028B9606C10B12046FE
:102B0000616C88471DE0E06BD8B12046E16B8847D7
:102B100017E02068006800F4807068B920680068D9
:102B200020F0100021680860012084F8350000BF03
:102B3000002084F8340000BFE06B10B12046E16B48
:102B40008847606D38B3606D00F00100F0B105207A
:102B500084F835002068006820F0010021680860D2
:102B600000BF0098401C0090B84200D905E02068E2
:102B7000006800F001000028F3D100BF012084F8B4
:102B8000350000BF002084F8340000BFE06C10B1B5
:102B90002046E16C884700BFA4E70000D402002073
:102BA0002DE9F0410446002500F042FA074614B929
:102BB0000120BDE8F081606A00B100BF022084F806
:102BC000350000BF002084F8340000BF2068006892
:102BD00020F00100216808600AE000F029FAC01B1B
:102BE000052805D920206065032084F83500E0E73A
:102BF0002068006800F001000028EED12068056818
:102C000021480540D4E901010843E16808432169EE
:102C1000084361690843A1690843E1690843216ADF
:102C200008430543606A042803D1D4E90B01084333
:102C30000543206805602068456925F00705606A3E
:102C40000543606A04280DD1A06A0543E06A48B1D3
:102C50002046FEF7CFFF28B140206065012084F8B0
:102C60003500A6E7206845612046FEF7A9FF064625
:102C700094F85C103F208840B0600020606501201F
:102C800084F83500002094E73F8010F02DE9F047EC
:102C900004460D4616461F464FF00008D4F85890DB
:102CA00000BF94F83400012802D10220BDE8F0876B
:102CB000012084F8340000BF94F83500012825D1A4
:102CC000022084F83500002060653B4632462946E4
:102CD0002046FEF7E4FF94F85C103F208840C9F8D6
:102CE00008002068006840F0160021680860206C29
:102CF00028B12068006840F008002168086020685A
:102D0000006840F001002168086006E000BF002074
:102D100084F8340000BF4FF002084046C6E70000C8
:102D200070B5044600F084F906462546681C10B1CB
:102D300004480078054400BF00F07AF9801BA842DF
:102D4000FAD370BDD002002070B5044604B109B9B1
:102D5000012070BD20680860087800F01F03012082
:102D600000FA03F21D480068104010B101204860CD
:102D700001E0002048601948001D0068104018B1AB
:102D8000486840F00200486000208860C860086819
:102D900000F0007000B3114808300068104008B11E
:102DA000012088600D480C300068104018B1886818
:102DB00040F002008860086800F0C060B0F1C06FA9
:102DC0000AD107489E0850F826509807000F25FAA8
:102DD00000F000F00F00C8600020BAE7003C01409E
:102DE0000838014010B50446204605F095FF10BD97
:102DF00010B5044604480068204020B10248046031
:102E00002046FFF7EFFF10BD143C0140F8B5024625
:102E10000B460025002400200021D6E0012606FAFA
:102E200001F51E6806EA0504AC4274D11E7906F06D
:102E30000306012E04D01E7906F00306022E13D1DC
:102E400090684F000326BE40B0434F00DE68BE408E
:102E500030439060506801268E40B0431E79C6F31F
:102E600000168E40304350601E7906F00306032E94
:102E700009D0D0684F000326BE40B0434F009E6883
:102E8000BE403043D0601E7906F00306022E13D1F7
:102E9000CF0802F1200656F827004E07F70E0F263E
:102EA000BE40B0434F07FF0E1E69BE403043CF08FF
:102EB00002F1200646F8270010684F000326BE40A6
:102EC000B0431E7906F003064F00BE403043106049
:102ED0005E6806F44036002E76D000BF00260096CD
:102EE0003C4E366846F480463A4F3E603E46366871
:102EF00006F48046009600BF00BF374E8F0856F894
:102F000027008E07370F0F26BE40B043334EB24224
:102F100002D1002624E057E0314EB24201D1012611
:102F20001EE0304EB24201D1022619E02E4EB242CE
:102F300001D1032614E02D4EB24201D104260FE048
:102F40002B4EB24201D105260AE02A4EB24201D1EF
:102F5000062605E0284EB24201D1072600E00826E9
:102F60008F073F0FBE4030431B4E8F0846F82700A7
:102F7000224E3068A0435E6806F4801606B12043F6
:102F80001E4E3060361D3068A0435E6806F40016A1
:102F900006B12043194E361D3060184E361F30687A
:102FA000A0435E6806F4003606B12043134E361F78
:102FB0003060361F3068A0435E6806F4803606B184
:102FC00020430E4E083E3060491C1029FFF426AF06
:102FD000F8BD0000443802400838014000000240BB
:102FE0000004024000080240000C024000100240B1
:102FF0000014024000180240001C0240083C01403E
:10300000024613690B400BB1012000E0002070471D
:1030100010B5426921EA020302EA010443EA0443CB
:10302000836110BD0AB1816101E00B0483617047C7
:103030000148006870470000C8020020034800688B
:10304000034909780844014908607047C802002014
:10305000D002002010B50D48006840F400700B4904
:1030600008600846006840F4806008600846006810
:1030700040F480700860032000F0F6F80F2000F0A4
:1030800007F800F05FF8002010BD0000003C02408F
:103090002DE9F04188B004460027B84600BF002063
:1030A00001902348006840F0080021490860084664
:1030B000006800F00800019000BF00BF02A903A84B
:1030C00000F0A8F9069F1FB900F0CCF9054602E010
:1030D00000F0C8F945001748B5FBF0F0A0F1010871
:1030E00015481649086040F2E7311448C160C0F83D
:1030F0000480002101618160816100F0D5FC0646F9
:1031000096B90E4800F046FD06466EB9322000F032
:1031100059F8102C07D200222146322000F066F820
:103120000748046000E00126304608B0BDE8F081A1
:103130004038024040420F00000C0040C40500200F
:10314000CC02002008B500BF0020009011480068A4
:1031500040F480400F4908600846006800F4804051
:10316000009000BF00BF00BF00200090081F006853
:1031700040F08050091F08600846006800F0805049
:10318000009000BF00BF00220F21901E00F02EF81B
:1031900008BD00004438024010B50146084600282A
:1031A0000BDB00F01F0301229A40054B440943F852
:1031B0002420BFF34F8FBFF36F8F00BF10BD0000FF
:1031C00080E100E00146084600280DDB00BF00BF9B
:1031D00000F01F0301229A4043099B0003F1E02302
:1031E000C3F8002100BF00BF00BF70472DE9F05FAA
:1031F00080460D461646002704F080F807463946FB
:103200002A46334601F00700C0F1070ABAF1040F5D
:1032100002D94FF0040A01E0C0F1070AD14600F1DB
:10322000040ABAF1070F02D24FF0000A01E0A0F140
:10323000030AD4464FF0010A0AFA09FAAAF1010A70
:103240000AEA020A0AFA0CFA4FF0010B0BFA0CFB1D
:10325000ABF1010B0BEA030B4AEA0B042146404693
:1032600004F054F8BDE8F09F00BF00F00702064BE1
:1032700019684FF6FF031940044B0B4343EA022140
:10328000014B196000BF70470CED00E00000FA052B
:1032900070B504460D460CB9012070BD5848006851
:1032A00000F00700A84209D255490D700846006891
:1032B00000F00700A84201D00120EEE7207800F0DE
:1032C000020002281DD1207800F00400042805D156
:1032D0004C48006840F4E0504A490860207800F00B
:1032E0000800082805D14748006840F46040454977
:1032F00008604448006820F0F000A1680843414994
:103300000860207800F00100A8B36068012807D1A8
:103310003C4808380068C0F34040B8B90120BCE719
:103320006068022802D06068032807D13548083851
:103330000068C0F3406048B90120AEE73148083862
:103340000068C0F3400008B90120A6E72D480068D6
:1033500020F00300616808432A490860FFF768FE0F
:10336000064609E0FFF764FE801B41F2883188427F
:1033700002D9032091E707E02248006800F00C0022
:103380006168B0EB810FEDD11D48006800F00700C7
:10339000A84209D91A490D700846006800F00700D4
:1033A000A84201D0012078E7207800F0040004282A
:1033B00007D11448006820F4E050E168084311493F
:1033C0000860207800F00800082808D10D4800683F
:1033D00020F46040216940EAC1000A49086000F019
:1033E00061F808490968C1F30311074A515CC840F4
:1033F0000649086006480068FFF74AFE00204CE7CF
:10340000003C02400838024012BA0008D4020020F2
:10341000CC0200200F2202600D4A126802F0030263
:1034200042600B4A126802F0F0028260084A126899
:1034300002F4E052C260064A126802F46042D20806
:103440000261044A126802F007020A607047000035
:1034500008380240003C0240014800687047000004
:10346000D402002000B5FFF7F7FF04490968C1F353
:103470008221034A515CC84000BD00000838024068
:1034800022BA000800B5FFF7E7FF04490968C1F355
:103490004231034A515CC84000BD00000838024078
:1034A00022BA00082DE9F047002400250026A14695
:1034B0002548006800F00C0020B1042805D0082839
:1034C0003AD105E0DFF8849039E0DFF8849036E007
:1034D0001D48001F006800F03F041B48001F0068E3
:1034E00000F4800078B11A481749091F0968C1F330
:1034F0008811A0FB01700146224600233846FCF7E4
:10350000C1FE05460EE011480F49091F0968C1F3C5
:103510008811A0FB01700146224600233846FCF7C3
:10352000B1FE05460848001F0068C0F30140401C7A
:103530004600B5FBF6F902E0DFF8109000BF00BFCF
:103540004846BDE8F0870000083802400024F40037
:1035500000127A00F8B504460CB90120F8BD2078B5
:1035600000F00100002874D0F948006800F00C0059
:1035700004280DD0F648006800F00C00082813D18C
:10358000F348001F006800F48000B0F5800F0BD1F5
:10359000EF4808380068C0F34040002859D0606800
:1035A000002856D10120D9E700BF6068B0F5803F00
:1035B00008D1E7480838006840F48030E449083909
:1035C00008601EE06068B0F5A02F0DD1E048083813
:1035D000006840F48020DE49083908600846006829
:1035E00040F4803008600CE0D9480838006820F4C6
:1035F0008030D749083908600846006820F48020E8
:10360000086000BF606890B1FFF712FD054606E054
:10361000FFF70EFD401B642801D903209EE7CC482C
:1036200008380068C0F340400028F1D011E0FFF7EF
:10363000FFFC054606E0FFF7FBFC401B642801D9B0
:1036400003208BE7C24808380068C0F340400028D8
:10365000F1D1207800F0020002285FD1BC48006858
:1036600000F00C0058B1BA48006800F00C000828BF
:103670001CD1B748001F006800F48000B0B9B448FE
:1036800008380068C0F3400020B1E068012801D08C
:10369000012063E7AE480838006820F0F80021698F
:1036A00040EAC100AA490839086037E0E06800B381
:1036B0000120A8490860FFF7BBFC054606E0FFF7BC
:1036C000B7FC401B022801D9032047E7A04808386F
:1036D0000068C0F340000028F1D09D480838006819
:1036E00020F0F800216940EAC100994908390860D2
:1036F00014E0002097490860FFF79AFC054606E0B1
:10370000FFF796FC401B022801D9032026E79048CA
:1037100008380068C0F340000028F1D1207800F09C
:10372000080008282CD16069A8B101208A490860E6
:10373000FFF77EFC054606E0FFF77AFC401B0228F7
:1037400001D903200AE782486C300068C0F34000CA
:103750000028F1D014E000207F490860FFF768FCE2
:10376000054606E0FFF764FC401B022801D9032050
:10377000F4E677486C300068C0F340000028F1D1CF
:10378000207800F00400042870D1002770483830F9
:10379000006800F0805090B900BF002000906C4895
:1037A0003830006840F08050694938310860084678
:1037B000006800F08050009000BF00BF01276748FC
:1037C000006800F48070B0B96448006840F480700C
:1037D00062490860FFF72CFC054606E0FFF728FC6D
:1037E000401B022801D90320B8E65C48006800F4B9
:1037F00080700028F2D000BFA068012808D154488A
:103800006830006840F001005149683108601DE0EF
:10381000A06805280DD14E486830006840F00400CB
:103820004B49683108600846006840F001000860B4
:103830000CE047486830006820F0010044496831D6
:1038400008600846006820F00400086000BFA06817
:10385000A8B1FFF7EDFB054609E0FFF7E9FB401BC8
:1038600041F28831884202D9032077E626E03848C1
:1038700068300068C0F340000028EED013E0FFF786
:10388000D7FB054608E0FFF7D3FB401B41F2883128
:10389000884201D9032061E62D4868300068C0F3F2
:1038A00040000028EFD1012F07D1294838300068A7
:1038B00020F0805026493831086000BFA0690028F8
:1038C00045D02348006800F00C0008285DD0A069AE
:1038D000022845D100201F490866FFF7A9FB0546CD
:1038E00006E0FFF7A5FB401B022801D9032035E6BF
:1038F000174808380068C0F340600028F1D1D4E9C7
:1039000007010843616A40EA81110122A06AC2EB03
:10391000500041EA00412C20005D41EA00600C4962
:10392000091F086001200B490866FFF781FB054667
:1039300006E0FFF77DFB401B022801D903200DE6BE
:10394000034808380068C0F340600028F1D049E01F
:103950000838024000004742800E47420070004095
:10396000002021490866FFF763FB054606E0FFF7E4
:103970005FFB401B022801D90320EFE51B480068CC
:10398000C0F340600028F2D12CE0A069012800D1EA
:10399000E4E51648001D0668A069012820D006F459
:1039A0008001E06981421BD106F03F01206A81421B
:1039B00016D147F6C0703040616AB0EB811F0FD15D
:1039C00006F440310122A06AC2EB5000B1EB004F77
:1039D00006D106F070612C20005DB1EB006F01D0C4
:1039E0000120BBE50020B9E5000047420038024055
:1039F0007047704730B502460B4600BF92F83C0056
:103A0000012801D1022030BD012082F83C0000BF16
:103A1000022082F83D00106844681068816824F034
:103A200070041868044310684460184D1068A84278
:103A30001BD01068B0F1804F17D0154D1068A84208
:103A400013D0144D1068A8420FD0134D1068A8422F
:103A50000BD0124D1068A84207D0114D1068A84233
:103A600003D0104D1068A84205D121F0800158689C
:103A7000014310688160012082F83D0000BF0020F2
:103A800082F83C0000BF00BFBDE70000000001401D
:103A90000004004000080040000C00400004014009
:103AA000004001400018004010B504460CB9012048
:103AB00010BD94F83D0028B9002084F83C00204651
:103AC00000F026F8022084F83D00211D206802F055
:103AD000CDFD012084F8460000BF84F83E0001219E
:103AE0003F200155402001554120015500BF00BF36
:103AF000012084F84200432001554420015545200F
:103B0000015500BF012084F83D000020D0E70000EF
:103B100038B504461C492068884218D100BF0020EF
:103B200000901A48006840F01000184908600846E4
:103B3000006800F01000009000BF00BF00220621C6
:103B40003620FFF753FB3620FFF73CFB1BE0104904
:103B50002068884217D100BF002000900B48006801
:103B600040F02000094908600846006800F0200085
:103B7000009000BF00BF00220F213720FFF736FB67
:103B80003720FFF71FFB38BD0010004040380240CF
:103B900000140040014691F83D00012801D00120A9
:103BA0007047022081F83D000868C06840F00100BD
:103BB0000B68D8601A4B086898421BD00868B0F1AF
:103BC000804F17D0174B0868984213D0164B0868DF
:103BD00098420FD0154B086898420BD0144B0868D8
:103BE000984207D0134B0868984203D0124B0868DC
:103BF00098420CD10868806800F00702062A0CD0B1
:103C00000868006840F001000B68186005E008686B
:103C1000006840F001000B6818600020C0E7000059
:103C2000000001400004004000080040000C00407B
:103C300000040140004001400018004001460868AF
:103C4000C06820F001000A68D06000BF0868006A00
:103C500041F21112104050B90868006A92101040E9
:103C600028B90868006820F001000A68106000BFE9
:103C7000012081F83D0000207047704770B5044670
:103C80002068C5682068066906F00200022819D17C
:103C900005F00200022815D1401F216808610120AB
:103CA00020772068806900F0030018B12046FFF7F4
:103CB000E4FF05E0204600F097F8204600F095F874
:103CC0000020207706F00400042819D105F0040034
:103CD000042815D1C043216808610220207720689C
:103CE000806900F4407018B12046FFF7C6FF05E078
:103CF000204600F079F8204600F077F80020207781
:103D000006F00800082819D105F00800082815D188
:103D1000C04321680861042020772068C06900F052
:103D2000030018B12046FFF7A8FF05E0204600F089
:103D30005BF8204600F059F80020207706F01000CC
:103D4000102819D105F01000102815D1C0432168A2
:103D50000861082020772068C06900F4407018B11D
:103D60002046FFF78AFF05E0204600F03DF8204698
:103D700000F03BF80020207706F0010048B105F084
:103D8000010030B16FF0010021680861204600F0A9
:103D90002DF806F08000802809D105F080008028E9
:103DA00005D1C043216808612046FFF721FE06F0D7
:103DB0004000402809D105F04000402805D1C0430B
:103DC00021680861204600F02FF806F02000202826
:103DD00009D105F02000202805D1C04321680861E1
:103DE0002046FFF706FE70BD7047704710B50446C9
:103DF0000A492068884201D1FFF720F90849206864
:103E0000884203D1204604F093FF06E0054920686C
:103E1000884202D1204604F0EFFF10BD000C0040A4
:103E2000001000400014004070470146486B704786
:103E3000F8B504460D46164694F8420020282DD1C8
:103E400005B10EB90120F8BD012020630020606398
:103E500032462946204602F003FF0746206B012820
:103E600019D100BF002000902068006800902068F1
:103E70004068009000BF00BF00BF00BF21680C3148
:103E800051E8001F41F0100021680C3141E80002A8
:103E9000002AF3D100E001273846D4E70220D2E718
:103EA00070B504460D460648A04203D1204600F0F6
:103EB000D1FE04E00348A04201D101F0E1F870BD59
:103EC000BC0400207404002010B5044600BF00BFED
:103ED00021680C3151E8001F21F4907021680C31E9
:103EE00041E80002002AF3D100BF00BF00BF2168F3
:103EF000143151E8001F21F001002168143141E81C
:103F00000002002AF3D100BF206B01280ED100BFB0
:103F100000BF21680C3151E8001F21F0100021681A
:103F20000C3141E80002002AF3D100BF206840694B
:103F300000F04000402820D100BF00BF21681431AC
:103F400051E8001F21F040002168143141E80002CF
:103F5000002AF3D100BFE06B78B10020E16B086567
:103F6000E06BFEF790FC40B1E06BFEF7F6FC20281A
:103F700003D110206064032010BD0020E0852020C4
:103F800084F842000020206300BFF5E7704700007E
:103F90002DE9F84F0446206805682068C668206847
:103FA00047694FF00009CA4605F00F09B9F1000F43
:103FB0000AD105F0200038B106F0200020B12046DB
:103FC00002F0BAFCBDE8F88FB9F1000F7CD007F021
:103FD000010018B906F49070002875D005F00100B2
:103FE00030B106F4807018B1606C40F0010060647C
:103FF00005F0040030B107F0010018B1606C40F02A
:104000000200606405F0020030B107F0010018B151
:10401000606C40F00400606405F0080048B106F0F0
:10402000200010B907F0010018B1606C40F00800E2
:104030006064606C002846D005F0200028B106F0CE
:10404000200010B1204602F077FC20684069C0F3E0
:10405000801A606C00F0080010B9BAF1000F2DD082
:10406000204602F010FC2068406900F04000402823
:1040700020D100BF00BF2168143151E8001F21F09A
:1040800040002168143141E80002002AF3D100BF4A
:10409000E06B50B17F48E16B0865E06BFEF749FCCF
:1040A00088B1E06B016D88470DE02046FFF76EFF99
:1040B00009E009E02046FFF769FF04E02046FFF72A
:1040C00065FF002060647DE7206B012878D105F052
:1040D0001000002874D006F010000028FAD000BFAD
:1040E00000200090206800680090206840680090E0
:1040F00000BF00BF2068406900F04000402870D138
:10410000E06B006840681FFA80F8B8F1000F58D0E3
:10411000A08D404555DDA4F82E80E06BC069B0F558
:10412000807F43D000BF00BF21680C3151E8001FE1
:1041300021F4807021680C3141E80002002AF3D19B
:1041400000BF00BF00BF2168143151E8001F21F0FB
:1041500001002168143141E80002002AF3D100BFB8
:1041600000BF00BF2168143151E8001F21F040005A
:104170002168143141E80002002AF3D100BF202059
:1041800084F842000020206300BF00BF21680C318A
:1041900051E8001F21F0100021680C3141E80002B5
:1041A000002AF3D100BFE06BFEF76DFB02206063D5
:1041B000A08DE28D801A81B22046FFF771FE0EE0DD
:1041C00052E0A08D40450AD1E06BC069B0F5807F18
:1041D00005D102206063A18D2046FFF761FEF1E664
:1041E000FFE7A08DE18D401A1FFA80F8E08DD0B373
:1041F000B8F1000F37D000BF00BF21680C3151E883
:10420000001F21F4907021680C3141E80002002A5F
:10421000F3D100BF00BF00BF2168143151E8001F77
:1042200021F001002168143141E80002002AF3D195
:1042300000BF202084F842000020206300BF00BFA0
:1042400021680C3151E8001F21F0100021680C3169
:1042500041E80002002AF3D100BF0220606341461A
:104260002046FFF71DFEADE605F0800030B106F0F8
:10427000800018B1204602F05FFDA3E605F0400083
:1042800030B106F0400018B1204602F032FB99E64A
:1042900000BF97E64D67000810B504460CB9012031
:1042A00010BDA06900B100E000BF94F8410028B93A
:1042B000002084F84000204600F02AF8242084F8EA
:1042C00041002068C06820F400502168C860204682
:1042D00002F0B0FB2068006920F49040216808617A
:1042E0002068406920F02A00216848612068C06881
:1042F00040F400502168C86000206064202084F8E9
:10430000410084F842000020606300BFC8E700005D
:1043100010B586B00446142101A8FBF7FDFF5B49E8
:104320002068884255D100BF00200090584800689E
:1043300040F40030564908600846006800F4003038
:10434000009000BF00BF00BF002000905048103810
:10435000006840F008004E491039086008460068BF
:1043600000F00800009000BF00BF60200190022014
:10437000029000200390032004900720059001A9DB
:104380004448FEF743FD4448444908604FF000604C
:104390004860002141488160C1604FF48061016143
:1043A000002141618161C16101624162FEF7F8FB58
:1043B00008B1FDF7BBFC00BF3848E063846300BF71
:1043C000002205212620FEF711FF2620FEF7FAFE27
:1043D0005AE033492068884256D100BF002000903F
:1043E0002B48006840F4802029490860084600688E
:1043F00000F48020009000BF00BF00BF00200090AC
:1044000023481038006840F0040021491039086042
:104410000846006800F00400009000BF00BF4FF4A1
:10442000406001900220029000200390032004903D
:104430000720059001A91B48FEF7E8FC16486038E4
:10444000194908604FF000604860002116488160FB
:10445000C1604FF480610161002141618161C161EE
:1044600001624162FEF79CFB08B1FDF75FFC00BFF3
:104470000D48E063846300BF002205212720FEF77A
:10448000B5FE2720FEF79EFE06B010BD004400409A
:1044900040380240000C02408860024004050020C1
:1044A0000048004000080240640500207047704743
:1044B0002DE9F84F04460E46174699464FF0000A7C
:1044C00094F84100202850D106B117B90120BDE869
:1044D000F88F00206064212084F84100FEF7A8FDD9
:1044E0008246A784E784A068B0F5805F04D1206984
:1044F00010B90025B04602E035464FF000081EE036
:104500005346002280212046CDF8009002F044FC62
:1045100020B1202084F841000320D8E745B9B8F83D
:104520000000C0F308002168486008F1020803E0B9
:104530002878216848606D1CE08C401EE084E08C87
:104540000028DDD15346002240212046CDF80090BE
:1045500002F022FC20B1202084F841000320B6E7BD
:10456000202084F841000020B1E70220AFE7704727
:1045700000BFFEE710B50E480E4908600C204860E9
:1045800000210C4881604FF00071C1600912016187
:10459000090141610021017641768176C17601777A
:1045A0004177FDF7A9FF08B1FDF7C0FB10BD000082
:1045B000006400409403002010B50E480E490860C6
:1045C0003020486000210C4881604FF00071C160CC
:1045D000091201610901416100210176417681766C
:1045E000C17601774177FDF787FF08B1FDF79EFBA4
:1045F00010BD000000680040BC03002008B500BFEB
:10460000002000900E48006840F400100C4908603B
:104610000846006800F40010009000BF00BF0022B0
:1046200005210C20FEF7E2FD0C20FEF7CBFD002259
:1046300005211020FEF7DAFD1020FEF7C3FD08BDAE
:104640003038024010B5054A0021054804F0F8FC56
:1046500004490860FCF72CF910BD000018B50008EB
:10466000195B00083801002000B587B0142102A8AA
:10467000FBF752FE00BF00200190D848006840F0D0
:104680001000D64908600846006800F0100001904C
:1046900000BF00BF00BF002001900846006840F046
:1046A000040008600846006800F00400019000BFA4
:1046B00000BF00BF002001900846006840F0800065
:1046C00008600846006800F08000019000BF00BF4D
:1046D00000BF002001900846006840F0010008601B
:1046E0000846006800F00100019000BF00BF00BF55
:1046F000002001900846006840F00200086008466B
:10470000006800F00200019000BF00BF00BF002061
:1047100001900846006840F02000086008460068E4
:1047200000F02000019000BF00BF00BF00200190FA
:104730000846006840F0400008600846006800F045
:104740004000019000BF00BF00BF0020019008465C
:10475000006840F0080008600846006800F00800A3
:10476000019000BF00BF00224FF63C419C48FEF77D
:1047700059FC00224FF440619A48FEF753FC002296
:1047800048F280019848FEF74DFC00224FF4F87182
:104790009648FEF747FC00224FF498519448FEF7E4
:1047A00041FC00224FF480719248FEF73BFC04204C
:1047B00002900120039000200490059002A98848EF
:1047C000FEF724FB182002900120039002200490A1
:1047D0000020059002A98248FEF718FB4FF6204002
:1047E00002900120039004900020059002A97C48CB
:1047F000FEF70CFB40200290002003900120049063
:1048000002A97748FEF702FB4EF23000029000202A
:1048100003900120049002A97548FEF7F7FAF820EA
:104820000290002003900120049002A97148FEF735
:10483000EDFA0D200290002003900120049002A9BF
:104840006848FEF7E3FA02200290002003900490EB
:1048500002A96448FEF7DAFA4FF47840029000208B
:1048600003900120049002A96348FEF7CFFA48F2B2
:1048700001000290002003900120049002A95B48EF
:10488000FEF7C4FA4FF440600290012003900490B8
:104890000020059002A95348FEF7B8FA4FF40040F3
:1048A000029001200390022004900020059002A9AC
:1048B0004D48FEF7ABFA4FF4F870029001200390D8
:1048C000022004900020059002A94848FEF79EFAB5
:1048D0004FF44070029001200390022004900020C9
:1048E000059002A94248FEF791FA4FF480700290B9
:1048F00001200390022004900020059002A93D4869
:10490000FEF784FA4FF480500290012003900020BB
:104910000490059002A93648FEF778FA1820029014
:104920004FF4041003900120049002A92E48FEF7D2
:104930006DFA8020029001200390002004900590E1
:1049400002A92948FEF762FA4FF4FC4002904FF4A6
:10495000041003900120049002A92448FEF756FA9F
:10496000032002904FF4041003900120049002A948
:104970001B48FEF74BFA002205210620FEF736FC05
:104980000620FEF71FFC002205210720FEF72EFC63
:104990000720FEF717FC002205210920FEF726FC60
:1049A0000920FEF70FFC002205210A20FEF71EFC5D
:1049B0000A20FEF707FC002205211720FEF716FC4F
:1049C0001720FEF7FFFB002205212820FEF70EFC32
:1049D0002820FEF7F7FB07B000BD0000303802408A
:1049E0000010024000040240000C02400018024087
:1049F0000008024000000240001402401CB50020E4
:104A0000009001900E480F49086042F2CF004860C4
:104A100000210C488160C721C16000218161FFF73E
:104A200043F808B1FDF782F9002000900190694633
:104A30000448FEF7DFFF08B1FDF778F91CBD000060
:104A400000100040E40300201CB5002000900190FD
:104A50000E480F49086042F2CF00486000210C4820
:104A6000816041F28731C16080218161FFF71CF8CC
:104A700008B1FDF75BF900200090019069460448F9
:104A8000FEF7B8FF08B1FDF751F91CBD0014004056
:104A90002C04002010B50B480B4908604FF4165049
:104AA0004860002108488160C16001610C214161BA
:104AB00000218161C161FFF7EFFB08B1FDF736F915
:104AC00010BD0000004400407404002010B50B48E5
:104AD0000B4908604FF41650486000210848816077
:104AE000C16001610C21416100218161C161FFF759
:104AF000D3FB08B1FDF71AF910BD000000480040D3
:104B0000BC040020002008490968C96841F0300150
:104B1000054A1268D16005490968096841F0180121
:104B2000024A126811607047BC040020640500202E
:104B300070B50446002500224FF480510548FEF769
:104B400071FA0A2221460448FFF772F900B10525DF
:104B5000284670BD00080240BC04002070B5044621
:104B60000D460026012211030648FEF75BFA4FF4BA
:104B7000FA73224629460448FFF79AFC00B105263D
:104B8000304670BD00080240BC04002010B500246F
:104B90000348FFF799F900B10524204610BD000035
:104BA000BC04002010B5002402210248FDF723F9BF
:104BB000204610BDBC03002070B504460025002629
:104BC00000210848FDF778FAC6B246B104F118038F
:104BD000224600210348FDF783FA00B10525284647
:104BE00070BD0000BC030020F0B587B004460D4640
:104BF0000027002006900A2618216846FBF78CFB48
:104C000000940020029003900820049007E01048D0
:104C1000FDF730FB00B106E0642004F0BBF9301E64
:104C2000A6F10106F3D100BF1EB90527384607B02B
:104C3000F0BD05F0FFF806AB2A4669460448FDF7CB
:104C4000EFF800B1052705F01FF93846EFE700003F
:104C5000BC0300207CB504462046FFF7E6F8054675
:104C6000022D00D05DBB174800780A2802DA00F058
:104C70009FFA7CBD0020019001262068C06820F0CA
:104C800010002168C860E06B0068006820F0180020
:104C9000E16B0968086001A80B49009009680023CE
:104CA0000322486B314606F0D1F8019830B1300745
:104CB00006490860BFF34F8FBFF36F8F00BF00BF7F
:104CC000D7E70000390200207801002004ED00E061
:104CD00000BFFEE700BFFEE72DE9F04105460E46A6
:104CE0001746AC694FF0000811E0207CB0420DD1AE
:104CF000204602F0B6FC394620462268904761689B
:104D000008606068006808B908F10108A469002C0F
:104D1000EBD108F0FF00BDE8F08100002DE9F04183
:104D200005460E46174698461C2004F0FDF804463A
:104D300014B90020BDE8F081054820606560A660D8
:104D4000E76084F810800020A06164612046F1E7EC
:104D50005176000810B51C2004F0E6F804460CB9A2
:104D6000002010BD0020A0612046FAE72DE9F041A7
:104D700004460D46164600BF0E4F3878532801D022
:104D800002F062F800BFEFF311800746202080F3A5
:104D9000118800BF00BF32462946204600F00CF8BB
:104DA0008046F8B280F3118800BF00BF4046BDE8DE
:104DB000F0810000845400202DE9F0470746884622
:104DC0001646C24607EB47011B4800EBC109D9F85C
:104DD000140020B1012811D0022826D11EE0484637
:104DE00002F06AF80546B54201D2002405E03446D7
:104DF00032465146484602F020FA18E0484602F092
:104E00005BF80546B54201D2284600E0304604462C
:104E100022465146484602F010FA08E03246514612
:104E2000484602F0CFF9044601E0002400BF00BF6D
:104E30002046BDE8F08700009C5400200FB438B530
:104E4000044606A800906A462046059900F008F836
:104E5000054600200090284638BC5DF814FB000091
:104E60002DE9F04F99B083460D46144603A81490DF
:104E70004020159000201690CDF860B0179000BF2C
:104E80002E786D1C06B9E4E0252E79D100274FF06D
:104E9000010900BF2E78232E12D02B2E0CD02D2EE0
:104EA00002D0302E10D103E047F001076D1C0EE058
:104EB00047F002076D1C0AE047F004076D1C06E08E
:104EC00047F008076D1C02E04FF0000900BF00BF6B
:104ED000B9F1000FDED14FF0000800BF2E78302E60
:104EE00001DB392E00DD07E06D1CA6F1300008EB78
:104EF000880100EB4108F1E700BF002013902E78F5
:104F00002E2E12D16D1C00BF2E78302E01DB392ED3
:104F100000DD09E06D1CA6F13000139901EB810161
:104F200000EB41001390EFE700BF2E7800BF6C2E1E
:104F300001D0682E02D16D1C2E7800E000E0F6E76B
:104F400000BF702E62D008DC252E71D0582E35D0CF
:104F5000632E09D0642E70D113E0732E3CD0752ED1
:104F60001DD0782E69D128E02168081D2060D1F875
:104F7000009009F0FF0A514614A802F0C7F85DE05E
:104F80005FE02168081D2060D1F80090CDE900871E
:104F90000A22494614A8139B01F09CFF4EE02168A9
:104FA000081D2060D1F80090CDE900870A2249460B
:104FB00014A8139B02F004F840E000BF2168081D0C
:104FC0002060D1F80090CDE900871022494614A84E
:104FD000139B01F0F5FF31E02168081D2060D1F836
:104FE00000A0BAF1000F01D10FF28C0A00BF9AF8AD
:104FF00000600AF1010A06B906E0314614A802F081
:1050000085F817980028F2DA00BF17E02168081D1C
:105010002060D1F80090002008210B461022CDE935
:105020000010494614A801F0CBFF07E000E004E0BF
:10503000252114A802F06AF800E000BF00BF6D1C33
:1050400003E0314614A802F061F817980028BFF673
:1050500017AF00BF179800280ADD169820B103A9E2
:105060005846169AFFF782FEDDE91610084417909D
:10507000179819B0BDE8F08F284E554C4C29000008
:1050800001200149087070474F02002070B586B0BA
:1050900006460C460025002003900490059007A0CA
:1050A00040F237110D4B0EA2CDE90104009117A17A
:1050B000042002F0E1FF06B070BD000053595F4DBF
:1050C0004F544F522041737069726174652061744E
:1050D000205B25645D204F4B200D0A0040B900087D
:1050E0002E2E5C4253505C73795F6D6F746F725CEF
:1050F0006472697665725C73795F6D6F746F725FED
:105100006472697665722E63000000004E4F5F5432
:105110004147000070B504460D4629462046FBF77E
:105120003FFF002070BD000070B586B006460C46FB
:105130000025002003900490059007A040F277110D
:105140000D4B0EA2CDE90104009117A1042002F03D
:1051500093FF06B070BD000053595F4D4F544F523E
:105160002044697370656E7365206174205B2564EB
:105170005D204F4B200D0A0052B900082E2E5C42D4
:1051800053505C73795F6D6F746F725C6472697693
:1051900065725C73795F6D6F746F725F647269764C
:1051A00065722E63000000004E4F5F5441470000BF
:1051B00001200149087070473A0200200020084988
:1051C0000968C96821F03001054A1268D1600549B3
:1051D0000968096821F01801024A126811607047D5
:1051E000BC040020640500202DE9FC410446002594
:1051F000264600200190012701A8009000230122EB
:105200003946D6F8AC0005F021FE019830B13807D8
:1052100004490860BFF34F8FBFF36F8F2846BDE886
:10522000FC81000004ED00E02DE9F04104460D464C
:105230001646002740F6B83332462946204605F088
:1052400079FF012800D001273846BDE8F08170B50C
:1052500004460D460026002301222946204605F07B
:1052600061FD012800D00126304670BD70B50446AE
:1052700000252646B06C04F0DDFE284670BD2DE901
:10528000F04104460D461646002732462946204680
:1052900005F0BEFB012800D001273846BDE8F081AB
:1052A00070B504460D46002600234FF47A72294655
:1052B000204605F05BFA012800D00126304670BD7B
:1052C00030B585B00546002400200290039004907C
:1052D00005A0FC21094B0AA2CDE9001013A104206E
:1052E00002F0CAFE05B030BD53595F4D4F544F52C6
:1052F000207265736574204F4B0D0A0031B90008A8
:105300002E2E5C4253505C73795F6D6F746F725CCC
:105310006472697665725C73795F6D6F746F725FCA
:105320006472697665722E63000000004E4F5F5410
:1053300041470000014600200CE0A5230A1D02F8A9
:105340003030002302EBC00253800A1D02EBC00282
:105350005360401C1428F0DB002070472DE9F04119
:1053600004460D4616461F464FF000083A463146A1
:10537000284603F065FE20600CB94FF00608404651
:10538000BDE8F08110B50446206804F0D9FE10BDD8
:105390002DE9FF4704460D4616461F46DDE90C9AE7
:1053A0004FF000086A2028A132A2CDE900023D4B4F
:1053B00025A2CDE902103CA1042002F05DFE14B14B
:1053C0000DB1002E10D170201FA139A2CDE900022D
:1053D000344B1DA2CDE9021033A1042002F04CFE93
:1053E000032004B0BDE8F0873E48D0473E48206126
:1053F000A560E6602764C4F84490002084F8280083
:10540000002124200155E16121622069016A2046C2
:1054100088478046B8F1000F04D134480078401C1A
:10542000324908704FF000088C2007A130A2CDE966
:1054300000021C4B04A2CDE902101BA1042002F0C3
:105440001BFE4046CDE700002E2E5C4253505C739D
:10545000795F6D6F746F725C6472697665725C738C
:10546000795F6D6F746F725F6472697665722E63B7
:105470000000000053595F4D4F544F525F647269F2
:105480007665725F496E7374207374617274696EAD
:10549000672E2E2E206174202573206C696E652086
:1054A000256400001CB900084E4F5F5441470000BE
:1054B00053595F4D4F544F525F6472697665725F06
:1054C000496E73743A204E554C4C20706172616D78
:1054D000206174202573206C696E652025640D0A97
:1054E00000000000B5580008F8B800083802002095
:1054F00053595F4D4F544F525F6472697665725FC6
:10550000496E7374204F4B206174202573206C69A1
:105510006E6520256400000070B586B005460E4615
:105520000024002003900490059006A04FF40E7113
:105530000D4B0EA2CDE9001017A1042002F09CFD36
:1055400006B070BD53595F4D4F544F522053595FB1
:105550004D4F544F525F6765745F6368616E6E654F
:105560006C204F4B0D0A000087B900082E2E5C42BC
:1055700053505C73795F6D6F746F725C647269769F
:1055800065725C73795F6D6F746F725F6472697658
:1055900065722E63000000004E4F5F5441470000CB
:1055A00070B588B004460E46002500200590069090
:1055B000079094F82800002810D040F2452024A13C
:1055C0002EA2CDE90002354B21A2CDE9021034A173
:1055D000042002F051FD022008B070BD012084F8C3
:1055E0002800A16848688047002004902E4903C91C
:1055F000CDE9020120788DF808000DF10E02062198
:1056000002A8FCF7AFFA2078A1680A6802A99047BF
:10561000054605B117E0A068C16805A8884705469A
:1056200005B110E0E06804AA012103690020984751
:10563000054605B107E09DF818009DF8171040EAEF
:105640000120306000BF002084F828002846C3E70E
:105650002E2E5C4253505C73795F6D6F746F725C79
:105660006472697665725C73795F6D6F746F725F77
:105670006472697665722E630000000053595F4DB5
:105680004F544F5220627573792061742025732026
:105690006C696E652025640D0A0000009CB9000845
:1056A0004E4F5F5441470000B0B9000830B5024684
:1056B0000123002013E0141D04EBC00464886CB9BE
:1056C000141D04EBC00461600D78141D04F8305003
:1056D000012504EBC0046580002302E0401C14286F
:1056E000E9DB00BF184630BD2DE9FF410446002626
:1056F000182020A12A4ACDE900022A4B1DA2CDE99B
:10570000021029A1042002F0B7FC00252EE0201D84
:1057100000EBC5004088012827D12549A434E06862
:10572000CDE90001636854F8A47906CF271D07EB83
:10573000C5077868FFF72CFE064626B101263046DD
:1057400004B0BDE8F0810221201D00EBC5004180BE
:10575000322008A1174ACDE90002124B05A2CDE97B
:10576000021011A1042002F087FC6D1C142DCEDB69
:105770003046E5E72E2E5C4253505C73795F6D6FC7
:10578000746F725C68616E646C65725C73795F6D76
:105790006F746F725F68616E646C65722E63000077
:1057A00004BD0008DEB900084E4F5F5441470000B9
:1057B000D558000894BD00087FB504460D46002664
:1057C0002078012802D1002004B070BD002C0FD138
:1057D000532028A1324ACDE90002324B25A2CDE95F
:1057E000021031A1042002F047FC03263046EBE70B
:1057F000002D0FD15D201FA1294ACDE90002294BC0
:105800001CA2CDE9021028A1042002F035FC0326D9
:105810003046D9E7286808B1686878B9682015A1CA
:105820001F4ACDE900021F4B12A2CDE902101EA1B2
:10583000042002F021FC03263046C5E7C4F8A4503A
:105840002046FFF751FF064616B101263046BBE75A
:10585000012020707E2007A1154ACDE90002114BDE
:1058600004A2CDE9021010A1042002F005FC30468C
:10587000AAE700002E2E5C4253505C73795F6D6F77
:10588000746F725C68616E646C65725C73795F6D75
:105890006F746F725F68616E646C65722E63000076
:1058A0004CBD0008F4B900084E4F5F54414700005A
:1058B000D8BD000870B504462546D5F8A41009687F
:1058C00088688047D5F8A400406841692846884721
:1058D00070BD000001490860704700003C020020D4
:1058E00070B586B006460C46002500200390049053
:1058F000059007A040F2FB110E4B0FA2CDE9010469
:10590000009118A1042002F0B7FB06B070BD0000A2
:1059100053595F4D4F544F52207365745F636861F4
:105920006E6E656C204F4B206174205B25645D0DAD
:105930000A00000072B900082E2E5C4253505C73BE
:10594000795F6D6F746F725C6472697665725C7397
:10595000795F6D6F746F725F6472697665722E63C2
:10596000000000004E4F5F544147000070B588B002
:1059700004460E460025002005900690079094F8F6
:105980002800002810D04FF41C7024A12EA2CDE9CD
:105990000002354B21A2CDE9021034A1042002F00F
:1059A0006BFB022008B070BD012084F82800A168BC
:1059B00048688047002004902E4903C9CDE90201C0
:1059C00020788DF80800300A8DF80C00F0B28DF8C0
:1059D0000D000DF10E02062102A8FCF7C3F8207895
:1059E000A1680A6802A99047054605B110E0A068C1
:1059F000C16805A88847054605B109E0E06804AA22
:105A00000121036900209847054605B100E000BF69
:105A1000002084F828002846C4E700002E2E5C42AF
:105A200053505C73795F6D6F746F725C64726976EA
:105A300065725C73795F6D6F746F725F64726976A3
:105A400065722E630000000053595F4D4F544F5252
:105A50002062757379206174202573206C696E65EE
:105A60002025640D0A000000B8B900084E4F5F54AD
:105A700041470000CCB9000830B585B00546002488
:105A8000002002900390049006A040F2AF110A4B50
:105A90000AA2CDE9001014A1042002F0EDFA05B02D
:105AA00030BD000053595F4D4F544F522073746FF7
:105AB00070204F4B0D0A000064B900082E2E5C4286
:105AC00053505C73795F6D6F746F725C647269764A
:105AD00065725C73795F6D6F746F725F6472697603
